:04000000B5EF25F043
:1000080000C01FF001C01EF002C01DF003C01CF0AC
:1000180004C01BF005C01AF006C019F008C018F09B
:1000280009C017F00AC016F00BC015F0E1CF28F090
:10003800E2CF29F0E9CF26F0EACF27F0F3CF24F07A
:10004800F4CF25F0F5CF23F0F8CF20F0F7CF21F04B
:10005800F6CF22F048EC22F023C0F5FF20C0F8FFCD
:1000680021C0F7FF22C0F6FF24C0F3FF25C0F4FF2C
:100078001FC000F01EC001F01DC002F01CC003F03C
:100088001BC004F01AC005F019C006F018C008F02B
:1000980017C009F016C00AF015C00BF026C0E9FF1A
:0E00A80027C0EAFF28C0E1FF29C0E2FF1100D7
:1000B600000E056E040E066EDEC203F0000E046E20
:1000C600033604360390033604360390DFC200F08D
:1000D600000E016E003601360090005003260150D6
:1000E600042203C001F004C002F00136019002367A
:1000F60001360190023601C003F002C004F004325A
:100106000332049E04BC048E04320332049E04BCF3
:10011600048E03C000F004C001F0003600900136E2
:10012600003600900136055000260650012200C018
:1001360005F001C006F000C0E1FF01C0E2FFE69E47
:100146000201DF51000A12E1DEC200F0000E016E6C
:10015600003600900136180E0024E16E020E0120D2
:10016600E26E05C0E6FF06C0E6FF11D0DEC200F073
:10017600000E016E003600900136440E0024E16E3A
:10018600020E0120E26E05C0E6FF06C0E6FF05C0CE
:10019600E1FF06C0E2FFE69C040E0524E16E000EB8
:0801A6000620E26EE68C120057
:0E01AE00800E0201DE11006E00C050F2120041
:1001BC00DEC24DF2DFC24EF2E0C251F2E1C252F2A7
:1001CC00800E0201E211006E008000C050F212009D
:1001DC00DEC24DF2DFC24EF2E0C24FF2E1C251F28A
:1001EC00E2C252F2800E0201E311006E00C050F226
:0201FC001200EF
:1001FE000B820BAE09EF01F003680268016800681C
:08020E000A360232FF0E120055
:0E021600026A016A006A086A036A000E12009A
:100224000B840BAE1DEF01F0010E036E026A016A2E
:0A023400006A0A360232FF0E1200C3
:08023E000AAE029E000E120040
:10024600700EE16E0F0EE26E0201D951E126D8B0B2
:10025600E22ADAC2E6FFDAA504D0D9C2DEF2DF6B03
:1002660027DFDAA305D0D9C2DEF2010EDF6F20DF69
:02027600120074
:100278000201DA51000A12E0D9C200F0000E016E44
:10028800003600900136440E0024E96E020E01206B
:10029800EA6EEECF04F0EECF05F011D0D9C200F02F
:1002A800000E016E003600900136180E0024E96E2B
:1002B800020E0120EA6EEECF04F0EECF05F0020E3A
:1002C8000424E16E000E0520E26EDBC2E6FFDCC20C
:1002D800E6FF010E0424E16E000E0520E26EDDC289
:1002E800E6FF04C0E9FF05C0EAFFEECF00F004C056
:1002F800E1FF05C0E2FF400E0014E66E04C0E9FF0E
:1003080005C0EAFFEECF00F004C0E1FF05C0E2FF40
:10031800880E0010E66EDA51000A1BE0D9C200F020
:10032800000E016E003600900136440E0024026E65
:10033800020E0120036E02C0E9FF03C0EAFF040EAB
:10034800EE18006E02C0E1FF03C0E2FF00C0E6FF46
:100358001AD0D9C200F0000E016E003600900136A6
:10036800180E0024026E020E0120036E02C0E9FF7F
:1003780003C0EAFF040EEE18006E02C0E1FF03C0DE
:10038800E2FF00C0E6FF04C000F005C001F0120063
:1003980020C401F01F0E01160150010AD8A4120052
:1003A80004012451000AD8A412002151060A38E198
:1003B8002DD002014851010A12E12B0EDE6F5B0EAF
:1003C800DF6F000EE06F120EDE27000EDF23E02342
:1003D800090EE16F000EE26F400EE36FFBDE20D0E6
:1003E80002014851010A0DE1C20EDE6F5B0EDF6F9C
:1003F800000EE06F210EE16F000EE26F400EE36F1A
:10040800E9DE0ED00201DE6BCEDE0AD004012351F4
:10041800210ACFE02351220AE3E02351230AF2E024
:1004280020C401F0600E0116050E006E005004E0B5
:100438000132019EFF0FFBD70150010AD8A4120018
:1004480027D039D038D01C0E0201DE6F020EDF6FC4
:10045800010EE06F000EE16F400EE26FABDE2BD0B5
:100468000201DE6BA0DE23C41CF225D00201120EAD
:10047800DE6F020EDF6F010EE06F000EE16FE26BC0
:1004880099DE19D00201DE6B8EDE22C412F213D07F
:1004980004012151010AD5E02151090AD3E0215173
:1004A800020AD1E021510A0ADBE02151030ADEE009
:0804B80021510B0AE7E01200DC
:1004C000080E026E0250000810E28196800E0201B2
:1004D000CD15016E0150000A02E1819401D08184A2
:0C04E0008186CD37CD910206EDD71200C9
:0A04EC000201295301E052DF120063
:1004F6000CB0BDEF02F00CA263EF03F00E6A000E23
:100506000264D4EF02F0F00E0214D8A49FEF02F0BA
:10051600023A01380F0B02260138F00B016E003843
:100526000F0B01260038F00B006E08380F0B002663
:100536000838F00B086E0E84D89002BEB8EF02F0B1
:1005460008360036013602360E2A02BEB8EF02F031
:1005560008360036013602360E2A02BEB8EF02F021
:1005660008360036013602360E2A0E50036459EF5D
:1005760003F0035E0BBC08AE5EEF03F0D880800E7E
:1005860008640030000E002201220222D8A05EEF8D
:1005960003F0023201320032034A63EF03F05EEFEA
:1005A60003F001C002F000C001F008C000F0086AC4
:1005B600000E0E8602640BEF03F0F00E0214D8A4B0
:1005C600F3EF02F0023A01380F0B02260138F00B66
:1005D600016E00380F0B01260038F00B006E0E84FA
:1005E600D89002BEB8EF02F00036013602360E2A67
:1005F60002BEB8EF02F00036013602360E2A02BEFF
:10060600B8EF02F00036013602360E2AB8EF02F0D5
:1006160001C002F000C001F0006A000E0E960E88BE
:10062600026438EF03F0F00E0214D8A423EF03F0AF
:10063600023A01380F0B02260138F00B016E0E84C8
:10064600D89002BEB8EF02F0013602360E2A02BE7C
:10065600B8EF02F0013602360E2A02BEB8EF02F0FB
:10066600013602360E2AB8EF02F001C002F0016A26
:10067600000E0E86026468EF03F0F00E0214D8A492
:1006860047EF03F0023A0E84D89002BEB8EF02F0AC
:1006960002360E2A02BEB8EF02F002360E2A02BE5B
:1006A600B8EF02F002360E2AB8EF02F0010E0C6E19
:1006B600B6DD6BEF03F0020E0C6EBEDD6BEF03F0E2
:1006C600040E0C6E99DD6BEF03F0080E0C6EA0DDC8
:0206D600120010
:1006D8000201295314E0010ED96F1E0EDA6FAFDD47
:1006E800010ED96FDA6B2AC2DBF22BC2DCF2400EA4
:1006F800DD6FBEDD00C049F201C04AF213D0010E21
:10070800D96F1E0EDA6F9BDD010ED96FDA6B2AC224
:10071800DBF22BC2DCF2400EDD6FAADD00C049F22D
:0607280001C04AF21200BC
:10072E00025006180E6E086A096A0B6A03500764B7
:10073E008AEF04F006500A6E068E028E03500B6E80
:10074E000750036E000E0B64DAEF03F00B50075EDA
:10075E00D8B47BEF04F0070E076449EF04F0075E90
:10076E0000C008F001C000F002C001F0026A074E9E
:10077E007BEF04F007641EEF04F0075E00C008F084
:10078E0001C000F0016A074E7BEF04F00764FCEF36
:10079E0003F0075E00C008F0006A074E7BEF04F01E
:1007AE000764E3EF03F00AC002F005C001F004C0D5
:1007BE0000F0086AA5EF05F0030E0764EEEF03F0F4
:1007CE00075E08380F0B086E074E7BEF04F0D890CB
:1007DE000832074E7BEF04F0D8900832074E7BEFBD
:1007EE0004F0D89008327BEF04F0030E07640DEF8F
:1007FE0004F0075E08380F0B086E0038F00B082661
:10080E0000380F0B006E074E7BEF04F0D8900032CD
:10081E000832074E7BEF04F0D89000320832074EB4
:10082E007BEF04F0D890003208327BEF04F0030E19
:10083E00076435EF04F0075E08380F0B086E0038BA
:10084E00F00B082600380F0B006E0138F00B002657
:10085E0001380F0B016E074E7BEF04F0D89001327A
:10086E0000320832074E7BEF04F0D890013200328E
:10087E000832074E7BEF04F0D89001320032083276
:10088E007BEF04F0030E076466EF04F0075E083892
:10089E000F0B086E0038F00B082600380F0B006E99
:1008AE000138F00B002601380F0B016E0238F00BE9
:1008BE00012602380F0B026E074E7BEF04F0D89024
:1008CE000232013200320832074E7BEF04F0D8902C
:1008DE000232013200320832074E7BEF04F0D8901C
:1008EE000232013200320832096A000E0EAE6FEF8C
:1008FE0005F0081E001E011E021E082A00220122FB
:10090E0002226FEF05F00750D8A490EF04F0A5EF88
:10091E0005F0096A02C00AF0028E068E0750035CCB
:10092E00076ED8B462EF05F0070E076430EF05F0DE
:10093E00075E0450096E0550046E0650056E066A79
:10094E00074E62EF05F0070E076405EF05F0075E30
:10095E000450096E0550046E056A074E62EF05F0ED
:10096E00070E0764E3EF04F0075E0450096E046A95
:10097E00074E62EF05F0070E0764CAEF04F00AC0D7
:10098E0002F0A5EF05F0030E0764D5EF04F0075E45
:10099E0009380F0B096E074E62EF05F0D890093239
:1009AE00074E62EF05F0D8900932074E62EF05F060
:1009BE00D890093262EF05F0030E0764F4EF04F0ED
:1009CE00075E09380F0B096E0438F00B0926043840
:1009DE000F0B046E074E62EF05F0D8900432093209
:1009EE00074E62EF05F0D89004320932074E62EFDF
:1009FE0005F0D8900432093262EF05F0030E076459
:100A0E001CEF05F0075E09380F0B096E0438F00B6A
:100A1E00092604380F0B046E0538F00B0426053832
:100A2E000F0B056E074E62EF05F0D89005320432BB
:100A3E000932074E62EF05F0D890053204320932C2
:100A4E00074E62EF05F0D89005320432093262EF9C
:100A5E0005F0030E07644DEF05F0075E09380F0B26
:100A6E00096E0438F00B092604380F0B046E053896
:100A7E00F00B042605380F0B056E0638F00B052615
:100A8E0006380F0B066E074E62EF05F0D890063251
:100A9E00053204320932074E62EF05F0D890063265
:100AAE00053204320932074E62EF05F0D890063255
:100ABE00053204320932086A000E0EAE6FEF05F0F1
:100ACE00091E041E051E061E092A042205220622E0
:100ADE000950082604500022055001220650022219
:100AEE000EBE86EF05F0D8A095EF05F0023201326A
:100AFE0000320832033E95EF05F09FEF05F0D8B0B7
:100B0E009AEF05F0000E081E001E011E021E082A96
:100B1E000022012202220A7E9AEF05F0010E0C6ECF
:100B2E00E3DCA7EF05F0020E0C6EDEDCA7EF05F09E
:100B3E00040E0C6EFFEC00F0A7EF05F0000E0C6E2D
:020B4E00120093
:100B50000B800BAEB4EF05F0026A0AAEFF0E026E18
:0C0B6000016E006E0A360232FF0E120019
:0E0B6C00828C829ECCC2CDF2A5DC828E12005D
:100B7A000B6A0A6A096A00500402F4CF09F0F3CF3B
:100B8A0008F001500502F4CF0BF0F3CF0AF0005041
:100B9A000502F3500926F4500A22E86A0B22015092
:100BAA000402F3500926F4500A22E86A0B2208C00C
:100BBA0000F009C001F00AC002F00BC003F01200F5
:100BCA000CD085DD3CD03BD08CDC39D038D037D046
:100BDA0036D035D0000033D032D0000E0201D419FD
:100BEA0002E1010ED319EDE0000ED41902E1020E62
:100BFA00D319E9E0000ED41902E1030ED319E4E097
:100C0A00D451000A02E1730ED319E0E0D451000A6C
:100C1A0002E1750ED319DBE0D451000A02E1740E29
:100C2A00D319D6E0D4513F0A02E1FF0ED319D1E01D
:100C3A00D451000A02E1720ED319CCE0CDD7010ECD
:040C4A00006E120026
:100C4E00D3C202F0D4C203F0D6C200F0D7C201F074
:100C5E00010E0201D65F000ED75B0050011009E0B5
:100C6E0002C0E1FF03C0E2FFD5C2E6FF024A032A3B
:040C7E00EBD712009E
:060C8200067E54DD1200A5
:100C88000B6A0C6A086A0350D8B4C8EF06F002C0B1
:100C98000AF0028E9E0E035E03AEB8EF06F0036CF8
:100CA800080E035CD8A085EF06F0036E083600C076
:100CB80008F001C000F002C001F0026A080E035CEF
:100CC800D8A085EF06F0036E083600C008F001C012
:100CD80000F0016A080E035CD8A085EF06F0036EE9
:100CE800083600C008F0006A080E035CD8A085EF3B
:100CF80006F0036E0836086A0350D8A4D89091EF1E
:100D080006F00350D8B491EF06F0D89002320132C1
:100D180000320832032E89EF06F00BBC08A0A2EFC0
:100D280006F0D8A0A2EF06F0082AD8B4002AD8B452
:100D3800012AD8B4022A02BECCEF06F00AAEC8EFE8
:100D480006F0021E011E001E081E082AD8B4002A3A
:100D5800D8B4012AD8B4022AC8EF06F0026A016A98
:100D6800006A086AC8EF06F00B800BAED2EF06F0F7
:100D7800026A0AAED2EF06F0026E016E006E086ECD
:100D88000A360232D2EF06F00C6A000ED3EF06F0F4
:100D9800010E0C6E000ED8DED3EF06F0FF0E0250E7
:100DA800036E0150026E0050016E0850006E120072
:100DB8000050086E0150006E0250016E0350026E22
:100DC800036A0B6A0C6A9E0E036E0A6A02AEF9EF9A
:100DD80006F0081E001E011E021E082AD8B4002AAA
:100DE800D8B4012AD8B4022A0A8E020E0C6E7BEC03
:040DF80002F01200F3
:100DFC000C6A0E6A0250D8A417EF07F001C002F07B
:100E0C0000C001F0006A0E860250D8A417EF07F05C
:100E1C0001C002F0016A0E960E880250D8B429EF78
:100E2C0007F00E50035ED8A4D8A02FEF07F0D8908F
:100E3C0002BE35EF07F0003601360236032E1EEFE8
:100E4C0007F02FEF07F0010E0C6E0BEC01F039EFF1
:100E5C0007F0020E0C6E12EC01F039EF07F0040EE5
:080E6C000C6E1FEC01F01200F6
:100E7400086A096A000E07620364BFEF07F00250B4
:100E840006180A6E075003267E0ED8A050EF07F00E
:100E9400035ED8B0C4EF07F054EF07F0035ED8A0A8
:100EA400C9EF07F0028E068E02C00EF001C00BF0EF
:100EB40000C00DF000500402F4CF0CF00150050204
:100EC400F4CF00F0F3CF08F00402F3500C26F450F2
:100ED4000822000E00220D500502F3500C26F45097
:100EE4000822000E002202500402F3500826F45097
:100EF400002202500502016A000E0122F35000266E
:100F0400F45001220D500602F3500826F45000223A
:100F1400026A000E012202220B500602F350002640
:100F2400F4500122000E02220E500602F350012654
:100F3400F450022202BEA7EF07F00836003601364D
:100F440002360306D8B4C9EF07F0BAEF07F0D88029
:100F5400800E08640030000E002201220222D8A074
:100F6400BAEF07F0023201320032034AC4EF07F04D
:100F74000AAE029E000ECCEF07F0010E0BEC01F05E
:100F8400CCEF07F0020EFFEC00F0CCEF07F0040EFC
:060F940012EC01F0120056
:100F9A00829C829ECBC2CDF260EC02F0828E12005D
:100FAA00200E0201555DD8A0120055517F08D8A025
:100FBA001200566B050E565D4AE2500E555D20E250
:100FCA00FF0E5515006E200E005E050E0002F3CFCF
:100FDA0000F000C054F256510026016A000E0122A8
:100FEA003B0E0024F66E5A0E0120F76E000EF86EC4
:100FFA00000E01BEFF0EF8220900F5CF53F222D0EF
:10100A0055514F081FE2FF0E5515006E500E005E37
:10101A00050E0002F3CF00F000C054F2565100262C
:10102A00016A000E01224B0E0024F66E590E0120B1
:10103A00F76E000EF86E000E01BEFF0EF8220900D0
:10104A00F5CF53F253C2CCF28CDD562BB3D7CC6B0F
:04105A0088DD12001B
:10105E000A6A0350D8A40A800750D8A40A820A50FC
:10106E00D8B492EF08F0030AD8B44BEF08F00AB0E8
:10107E0046EF08F006AE90EF08F08EEF08F002AEE5
:10108E008EEF08F090EF08F00250800B0A6E029E71
:10109E000650800B069E0A18D8B45CEF08F00A5072
:1010AE00D8B48EEF08F090EF08F00750035CD8B478
:1010BE0066EF08F0D8A082EF08F088EF08F006502F
:1010CE00025CD8B470EF08F0D8A082EF08F088EF79
:1010DE0008F00550015CD8B47AEF08F0D8A082EF82
:1010EE0008F088EF08F00450005CD8B492EF08F0D6
:1010FE00D8B088EF08F00A52D8B490EF08F08EEF0F
:10110E0008F00A52D8B48EEF08F090EF08F0D880AD
:0E111E001200D8901200D880D884120012005F
:08112C000B6A0B86FF0E120096
:10113400F250026EF29E0500FF6A0150FE6E0050EE
:08114400FD6E02BEF28E1200E6
:10114C0004012051800AD8A479D0C00E0201506F3E
:10115C006AD00201F50E006E5B0E016E000E026E7F
:10116C0000C04DF201C04EF202C04FF2120E516F90
:10117C00000E526F63D0020122C400F0000E016E0B
:10118C00030E046E000E056EF2DC2C0E0024E96ECC
:10119C00020E0120EA6EEECF4DF2EECF4EF2EECF04
:1011AC004FF2020E4D25F66E000E4E21F76E000E1C
:1011BC004F21F86E0900F5CF00F00900F5CF01F0D2
:1011CC0000C051F201C052F239D0030E0401225D6D
:1011DC0024E222C400F0000E016E030E046E000E19
:1011EC00056EC5DC2F0E0024E96E020E0120EA6E9E
:1011FC00EECF4DF2EECF4EF2EECF4FF24DC2F6FFE8
:10120C004EC2F7FF4FC2F8FF0900F5CF00F000C047
:10121C0051F2000E0201526F02D00201506B0ED03F
:10122C000201506B0BD004012351010A92E02351AF
:0E123C00020AA1E02351030AC8E0F2D7120013
:10124A000201508F710ED36F0F0ED46FD56B010E42
:10125A00D66F000ED76FF6DC210ED36F020ED46F55
:10126A00D56B010ED66F000ED76FECDC22C448F2A4
:10127A004851000A03E1100E176F0FD0200E176FA6
:10128A00010ED36F000ED46F480ED56F020ED66FC3
:0C129A00010ED76F000ED86F93DC12001D
:1012A600000E0201525D02E1080E515D10E251C2CC
:1012B60003F052C204F02351000A03E1010E236F2A
:1012C60005D02351010A02E1020E236F04D0080E55
:1012D600036E000E046E44C2E1FF45C2E2FFE692D1
:1012E60044C2E1FF45C2E2FFE69044C2E9FF45C2BF
:1012F600EAFFEECF00F044C2E1FF45C2E2FF045030
:101306000010E66E010E4425E16E000E4521E26EE8
:1013160003C0E6FF0350515D006E04505259016E42
:1013260000C051F201C052F2280E1E6F040E1F6F4C
:1013360050B12FD0035004102BE04DC2F6FF4EC221
:10134600F7FF4FC2F8FF0900F5CF00F01EC2E1FF1C
:101356001FC2E2FF00C0E6FF1E4B1F2B010E4D25EC
:10136600006E000E4E21016E000E4F21026E00C06F
:101376004DF201C04EF202C04FF2010E035C006E48
:10138600000E0458016E00C003F001C004F0D2D76D
:1013960024D00350041021E04DC2E9FF4EC2EAFFFB
:1013A6001EC2E1FF1FC2E2FFEECFE6FF1E4B1F2B60
:1013B600010E4D25006E000E4E21016E00C04DF24D
:1013C60001C04EF2010E035C006E000E0458016E61
:0C13D60000C003F001C004F0DCD71200DE
:1013E20004012251010A13E120C401F01F0E01166B
:1013F2000150000A0CE10201508F04012151030A3D
:1014020004E1010E0201246F02D00201246B0401E7
:101412002251000AD8A48BD020C401F01F0E01165D
:101422000150020AD8A483D024C401F00F0E011681
:101432000150000AD8B47BD00201508F040124BFAE
:1014420016D024C403F00F0E031603C000F0000EE2
:10145200016E003600900136180E0024E96E020E6D
:101462000120EA6EEECF04F0EECF05F015D024C4D1
:1014720003F00F0E031603C000F0000E016E0036DB
:1014820000900136440E0024E96E020E0120EA6E3D
:10149200EECF04F0EECF05F02151030A07E104C0BC
:1014A200E1FF05C0E2FF840EE66E41D024C400F0E5
:1014B2000F0E0016700E026E0F0E036E0050022603
:1014C200D8B0032A02C0E9FF03C0EAFFEECF00F062
:1014D200EECF01F0009002C0E1FF03C0E2FF00C0C6
:1014E200E6FF01C0E6FF24AF11D004C0E1FF05C052
:1014F200E2FFE66A040E0418006E00C004F004C0A5
:10150200E1FF05C0E2FF400EE66E11D004C0E1FF2C
:1015120005C0E2FF880EE66E040E0418006E00C0DD
:1015220004F004C0E1FF05C0E2FFC80EE66E12003F
:101532000401286B296B4AD00201508F04012881D3
:1015420002012451010A02E10401288354D002015C
:10155200508F51D00201508F040124BF16D024C4F1
:1015620003F00F0E031603C000F0000E016E0036EA
:1015720000900136180E0024E96E020E0120EA6E78
:10158200EECF04F0EECF05F015D024C403F00F0E19
:10159200031603C000F0000E016E00360090013603
:1015A200440E0024E96E020E0120EA6EEECF04F032
:1015B200EECF05F004C0E9FF05C0EAFFEECF01F06F
:1015C20001A403D00401010E286F15D020C401F03C
:1015D2001F0E01160150000AAFE020C401F01F0ED9
:1015E20001160150010AB3E020C401F01F0E0116DA
:1015F2000150020AAFE0020150AF07D0280E4D6F32
:0C160200040E4E6F5081020E516F12005A
:10160E000B6A0350D8B44DEF0BF002500A6E028EE7
:10161E008E0E035E03AE51EF0BF0036C080E035CEF
:10162E00D8A02CEF0BF0036E013602C001F0026A57
:10163E00080E035CD8A02CEF0BF0036E0136016A86
:10164E000350D8A4D89036EF0BF00350D8B436EF31
:10165E000BF0D89002320132032E30EF0BF00BBCA0
:10166E0001A043EF0BF0D8A043EF0BF0012AD8B442
:10167E00022A02BE60EF0BF00AAE66EF0BF0021EFE
:10168E00011E012AD8B4022A66EF0BF0026A016A23
:10169E0066EF0BF00B800BAE6AEF0BF0026A0AAE30
:1016AE006AEF0BF0FF0E026E016E0A3602326AEF1F
:1016BE000BF0010E0C6EA8EC05F06CEF0BF0000EAB
:1016CE000C6E6CEF0BF0FF0E0C6E0150006E0250A4
:0416DE00016E120087
:0816E200BEC255F261DC1200EA
:1016EA00BE0E046E020E056E030E0424E96E000E91
:1016FA000520EA6E7E0EEE5C006E016A000E015A4B
:10170A00C2C2E1FFC3C2E2FF00C0E6FF01C0E6FFBA
:10171A00030E0424E16E000E0520E26E7E0EE66ED4
:10172A00BEC200F0BFC201F0C0C202F0C1C203F0E3
:02173A0012009B
:10173C00C5C200F0C6C201F0000E0201C6BFFF0E0A
:10174C00026E036E00360090013602360336003608
:10175C000090013602360336C2510024F66EC35196
:10176C000120F76EC4510220F86E0900F5CFC7F2C4
:10177C000900F5CFC8F20900F5CFC9F20900F5CF81
:10178C00CAF2C551C61149E0BEC200F0BFC201F099
:10179C00C0C202F0C1C203F0C7C204F0C8C205F057
:1017AC00C9C206F0CAC207F03AEC07F0010EC55FD9
:1017BC00000EC65BC5C204F0C6C205F0000EC6BF63
:1017CC00FF0E066E076E0436049005360636073695
:1017DC0004360490053606360736C2510424F66EDC
:1017EC00C3510520F76EC4510620F86E0900F5CFE1
:1017FC0004F00900F5CF05F00900F5CF06F009005B
:10180C00F5CF07F097EC03F000C0C7F201C0C8F2A7
:10181C0002C0C9F203C0CAF2B4D7C7C200F0C8C232
:0C182C0001F0C9C202F0CAC203F01200B1
:1018380000C008F00150006E016A026A036A0B6A70
:101848000C6A016A026A036A960E036E0A6A00AE9F
:1018580034EF0CF0081E001E082AD8B4002A0A8E9D
:1018680000C001F008C000F0086A026AFEEC06F049
:0218780012005C
:10187A00C1C200F0016A026A036AFF0E0016000E76
:10188A00011600C0C6F201C0C7F27F0E005C026EEC
:10189A00000E0158036E02C0C6F203C0C7F2800EE2
:1018AA000318006E800E005C02E1000E025C22E268
:1018BA00046A056A066A076ABEC200F0BFC201F07E
:1018CA00C0C202F0C1C203F02FEC08F0010ED8B07A
:1018DA00000E006E005209E0000E006E000E016E4E
:1018EA00800E026E7F0E036E1200006A016A026A9F
:1018FA00036A12000201000E006EC751005C02E189
:10190A00C651180809E2BEC200F0BFC201F0C0C247
:10191A0002F0C1C203F01200BEC200F0BFC201F061
:10192A00C0C202F0C1C203F044EC06F0DCEC06F0DF
:10193A0000C0C2F201C0C3F202C0C4F203C0C5F2C1
:10194A0000C004F001C005F002C006F003C007F0B1
:10195A00BEC200F0BFC201F0C0C202F0C1C203F0B1
:10196A002FEC08F0010ED8B0000E006E005213E002
:10197A00000E046E000E056E000E066E7F0E076ED8
:10198A00C2C200F0C3C201F0C4C202F0C5C203F071
:10199A0041EC06F01200C2C200F0C3C201F0C4C298
:0819AA0002F0C5C203F01200B7
:1019B200BE0E0201C46F020EC56F030EC425D96E9E
:1019C200000EC521DA6EDE50C225016E000EC32163
:1019D200026E01C0C2F202C0C3F2800E0218006E93
:1019E200800E005C02E1000E015C05E2006A016A01
:1019F200026A036A1200800E006E800EC319005C38
:101A020002E1C251FF0826E2046A056A066A076A11
:101A1200BEC200F0BFC201F0C0C202F0C1C203F0F8
:101A22002FEC08F0010ED8B0000E006E005209E053
:101A3200FF0E006EFF0E016EFF0E026EFF0E036EB2
:101A42001200FF0E006EFF0E016E7F0E026EFF0E81
:101A5200036E1200030EC425E16E000EC521E26E74
:101A6200C2C2E6FFBEC200F0BFC201F0C0C202F0B5
:061A7200C1C203F01200E6
:101A7800010E02011325E96E000E1421EA6EEECF65
:101A880000F000C0D1F2000E3F5D02E1D1513E5D91
:101A980003E23EC2D1F20AD0D1513E5D006E000E83
:101AA8003F59016E00C03EF201C03FF2D26BD151E6
:101AB800D25D1CE2280EE96E040EEA6ED251E926C8
:101AC800D8B0EA2AEECF00F03BC2E1FF3CC2E2FF09
:101AD80000C0E6FF010E3B25006E000E3C21016EA2
:101AE80000C03BF201C03CF2D22BE1D7000E006EE1
:101AF8003F51005C02E13E51000828E2010E152525
:101B0800E16E000E1621E26E080EE66E020E152535
:101B1800E16E000E1621E26E280EE66E040EE66EE9
:101B280013C2E9FF14C2EAFFEECF00F000BC07D0F1
:101B380015C2E1FF16C2E2FFC80EE66E06D015C256
:101B4800E1FF16C2E2FF880EE66E2DD0010E1525C4
:101B5800E16E000E1621E26E080EE66E020E1525E5
:101B6800E16E000E1621E26E200EE66E040EE66EA1
:101B780015C2E1FF16C2E2FF840EE66E000E006E8B
:101B8800431908E10050421905E10050411902E1EA
:101B98004051000A06E040C200F041C201F09AEC50
:081BA80008F002013D9F12004C
:101BB0006D98020150BF49D03DAF28D0020E1D6F75
:101BC000010E4425E16E000E4521E26EE66A44C234
:101BD000E1FF45C2E2FFC80EE66E010E1525E16E7B
:101BE000000E1621E26E080EE66E020E1525E16E5D
:101BF000000E1621E26E280EE66E040EE66E15C289
:101C0000E1FF16C2E2FFC80EE66E1ED0010E1525DA
:101C1000E16E000E1621E26E080EE66E020E15252C
:101C2000E16E000E1621E26E200EE66E040EE66EE8
:101C300015C2E1FF16C2E2FF8C0EE66E44C2E1FF60
:101C400045C2E2FF840EE66E83D03DBF81D0040121
:101C500020AF56D0020152510401275D04E1020178
:101C600051510401265D04E226C451F227C452F208
:101C700053EC09F0010E1D6F010E1525E16E000EEB
:101C80001621E26E080EE66E020E1525E16E000EBC
:101C90001621E26E200EE66E040EE66E15C2E1FF1E
:101CA00016C2E2FF800EE66E226B010E1325E16E76
:101CB000000E1421E26E080EE66E020E1325E16E90
:101CC000000E1421E26E200EE66E040EE66E13C2C4
:101CD000E1FF14C2E2FF840EE66E010E226F020ED7
:101CE0004425E16E000E4521E26E280EE66E040EDC
:101CF000E66E44C2E1FF45C2E2FFC80EE66E28D0A0
:101D00000201020E1D6F010E4425E16E000E4521F9
:101D1000E26EE66A44C2E1FF45C2E2FFC80EE66E2B
:101D2000010E1525E16E000E1621E26E080EE66E1C
:101D3000020E1525E16E000E1621E26E280EE66EEB
:101D4000040EE66E15C2E1FF16C2E2FFC80EE66E93
:021D500012007F
:101D520020C401F0600E0116050E006E005004E072
:101D62000132019EFF0FFBD70150000AD8A41200D6
:101D720049D00201508F080E176F67D0A6EC08F009
:101D820064D025EC09F061D0480E02014D6F020EBD
:101D92004E6F5081010E516F508F57D099EC0AF05F
:101DA20054D0F1EC09F051D0210E006E020E016EFA
:101DB200040124510026D8B0012A00C04DF201C00E
:101DC2004EF202015081010E516F508F3ED002013E
:101DD200508F210EE16E020EE26E04012451E126C3
:101DE200D8B0E22A22C4E6FF30D0020E0201D36F3D
:101DF200000ED46FD56BD66BD76BD86BE5EC05F0C4
:101E020024D023D004012151050AB3E02151060A4E
:101E1200B5E02151090AB5E02151080AB5E0215186
:101E2200000ABCE02151010ABCE02151030AB9E0D9
:101E320021510A0AB9E021510B0AC9E02151070ACE
:0C1E4200D4E021510C0ADDE0DCD71200D6
:101E4E0002011D6B44C2E1FF45C2E2FFE66A040EC9
:101E5E004419E16E45C2E2FF000EE21AE66A3DAF9A
:101E6E0015D0000E006E431908E10050421905E12D
:101E7E000050411902E14051000A06E040C200F054
:0E1E8E0041C201F09AEC08F002013D9F1200E3
:101E9C000450000A12E10550000A0FE10650000A36
:101EAC000CE10750000A09E1FF0E006EFF0E016EF7
:101EBC007F0E026EFF0E036E1200086A096A07504D
:101ECC00D8B4F9EF0FF00350D8B4FEEF0FF0025076
:101EDC0006180A6E028E068E0E6A02C008F001C049
:101EEC000CF000C00DF004500D5E0550D8A0053C60
:101EFC000C5E0650D8A0063C085E086A0C6A0D6A97
:101F0C00D8A090EF0FF0D890023201320032083294
:101F1C00010E0E6E0750035ED8A09DEF0FF07E0EE3
:101F2C000E240326D8B003EF10F0A3EF0FF07E0EB3
:101F3C000E240326D8A008EF10F0180E0B6E0D36E9
:101F4C000C3608360036013602360E360450005E6A
:101F5C000550D8A0053C015E0650D8A0063C025E98
:101F6C0006340E120EA0BEEF0FF00D80C9EF0FF06D
:101F7C00045000260550D8B0053C01260650D8B0B8
:101F8C00062802260D900B2EA5EF0FF0EFEF0FF0A9
:101F9C00D8900036013602360E360450005E0550DD
:101FAC00D8A0053C015E0650D8A0063C025E063463
:101FBC000E10010B0D26D8B00C2AD8B4082AD8A4C0
:101FCC00EFEF0FF008320C320D32032AD8B403EFC6
:101FDC0010F00AAE089E0850026E0C50016E0D50A7
:101FEC00006E0BEF10F0010E96EC08F00BEF10F0FA
:101FFC00020E0BEC01F00BEF10F0040EFFEC00F0F6
:0C200C000BEF10F0080E12EC01F01200B7
:1020180003500718D8A420EF10F002500618D8A4CF
:1020280020EF10F001500518D8A420EF10F0005050
:0E2038000418D8B4D8841200D89412001200F4
:10204600070E0201BF15006E400E0010CB6FCDECDF
:1020560007F07F0EBE15006E800E0010CB6FCDEC24
:0420660007F012006D
:10206A000201B86B4F0EB85D0BE2B8C2BEF2B7C23E
:10207A00BFF2E4DF200EBE6F71EC0BF0B82BF2D783
:02208A00120042
:10208C000B6A0C6A0A6A086A0350D8B4CEEF10F0D7
:10209C00028E9E0E035E03BE59EF10F0D8B459EFBA
:1020AC0010F0BEEF10F0036C080E035CD8A08BEFA1
:1020BC0010F0036E083600C008F001C000F002C03A
:1020CC0001F0026A080E035CD8A08BEF10F0036ECF
:1020DC00083600C008F001C000F0016A080E035C6D
:1020EC00D8A08BEF10F0036E083600C008F0006A21
:1020FC00080E035CD8A08BEF10F0036E0836086A4C
:10210C000350D8A4D89097EF10F00350D8B497EFA1
:10211C0010F0D8900232013200320832032E8FEFC9
:10212C0010F00BBC08A0A8EF10F0D8A0A8EF10F08E
:10213C00082AD8B4002AD8B4012AD8B4022A02BE7C
:10214C00D2EF10F00AAECEEF10F0021E011E001EF0
:10215C00081E082AD8B4002AD8B4012AD8B4022AF6
:10216C00CEEF10F0026A016A006A086ACEEF10F036
:10217C000B800BAED8EF10F0026A0AAED8EF10F05D
:10218C00026E016E006E086E0A360232D8EF10F045
:10219C00000E0C6AD9EF10F0010E0C6EA8EC05F0D5
:1021AC00D9EF10F0FF0E0250036E0150026E00507A
:0821BC00016E0850006E1200D4
:1021C4000201B851000A12E0B7C200F0000E016E1D
:1021D400003600900136440E0024E96E020E012000
:1021E400EA6EEECF04F0EECF05F011D0B7C200F0E6
:1021F400000E016E003600900136180E0024E96EC0
:10220400020E0120EA6EEECF04F0EECF05F0020ECE
:102214000424E16E000E0520E26EB9C2E6FFBAC2E4
:10222400E6FF010E0424E16E000E0520E26EBBC23F
:10223400E6FF04C0E9FF05C0EAFFEECF00F004C0EA
:10224400E1FF05C0E2FF400E0014E66E04C0E9FFA2
:1022540005C0EAFFEECF00F004C0E1FF05C0E2FFD5
:10226400880E0010E66EB851000A1BE0B7C200F0F9
:10227400000E016E003600900136440E0024026EFA
:10228400020E0120036E02C0E9FF03C0EAFF040E40
:10229400EE18006E02C0E1FF03C0E2FF00C0E6FFDB
:1022A4001AD0B7C200F0000E016E0036009001365D
:1022B400180E0024026E020E0120036E02C0E9FF14
:1022C40003C0EAFF040EEE18006E02C0E1FF03C073
:1022D400E2FF00C0E6FF04C000F005C001F01200F8
:1022E400046A056A066A076AB7C200F0B8C201F058
:1022F400B9C202F0BAC203F08DDE010ED8A4000EFA
:10230400006E005209E0000E006E000E016E000E19
:10231400026E7F0E036E1200B7C204F0B8C205F05D
:10232400B9C206F0BAC207F0FC0E006ED40E016EFC
:10233400320E026E850E036E2FEC08F0010ED8B03B
:10234400000E006E005209E0FF0E006EFF0E016EDB
:102354007F0E026EFF0E036E12004F0E046EAC0E63
:10236400056EAE0E066E850E076EB7C200F0B8C2DB
:1023740001F0B9C202F0BAC203F02FEC08F0010E6A
:10238400D8B0000E006E005205E0006A016A026ACD
:10239400036A1200046A056A066A076AB7C200F093
:1023A400B8C201F0B9C202F0BAC203F02FEC08F0CF
:1023B400010ED8B0000E006E00C0BDF2005202E063
:1023C4000201B97FB7C200F0B8C201F0B9C202F08D
:1023D400BAC203F03B0E046EAA0E056E380E066EEA
:1023E4007F0E076E3AEC07F000C0B7F201C0B8F2F6
:1023F40002C0B9F203C0BAF200C0BEF201C0BFF21B
:1024040002C0C0F203C0C1F23DEC0CF007EC0BF0CB
:1024140000C0BBF201C0BCF21CEC0CF000C004F024
:1024240001C005F002C006F003C007F0B7C200F017
:10243400B8C201F0B9C202F0BAC203F041EC06F02E
:1024440000C0B7F201C0B8F202C0B9F203C0BAF2D8
:1024540000C0BEF201C0BFF202C0C0F203C0C1F2AC
:10246400540E0201C26F5B0EC36F000EC46F090EDF
:10247400C56F000EC66F9EEC0BF000C0BEF201C02B
:10248400BFF202C0C0F203C0C1F2BBC2C2F2BCC2FE
:10249400C3F2D9EC0CF000C0B7F201C0B8F202C02C
:1024A400B9F203C0BAF2BD532EE0FF0E046EFF0E64
:1024B400056E7F0E066EFF0E076EB7C200F0B8C23F
:1024C40001F0B9C202F0BAC203F0A4DD010ED8A42F
:1024D400000E006E005205E0006A016A026A036A97
:1024E4001200B7C204F0B8C205F0B9C206F0BAC20D
:1024F40007F0000E006E000E016E000E026E7F0EDD
:10250400036ECADC1200B7C200F0B8C201F0B9C24F
:0825140002F0BAC203F012004C
:10251C000B6A0A6A096A086A0E6A033408360450A0
:10252C00085E0550D8A0053C095E0650D8A0063CB4
:10253C000A5E0750D8A0073C0B5EE86AD8A0010ED3
:10254C000E5E0336070E0C6E0334083609360A3657
:10255C000B360E36045003A012D0085E0550D8A0DE
:10256C00053C095E0650D8A0063C0A5E0750D8A070
:10257C00073C0B5EE86AD8A0010E0E5E11D008264F
:10258C000550D8B0053C09260650D8B0063C0A26A2
:10259C000750D8B0073C0B26E86AD8B0010E0E26BF
:1025AC0003360C2ED1D70234083609360A360B36D0
:1025BC000E36045003A012D0085E0550D8A0053C7E
:1025CC00095E0650D8A0063C0A5E0750D8A0073C0E
:1025DC000B5EE86AD8A0010E0E5E11D008260550DD
:1025EC00D8B0053C09260650D8B0063C0A26075040
:1025FC00D8B0073C0B26E86AD8B0010E0E2602367E
:10260C00070E0C6E0234083609360A360B360E36B7
:10261C00045002A012D0085E0550D8A0053C095EFB
:10262C000650D8A0063C0A5E0750D8A0073C0B5EAB
:10263C00E86AD8A0010E0E5E11D008260550D8B05D
:10264C00053C09260650D8B0063C0A260750D8B0DF
:10265C00073C0B26E86AD8B0010E0E2602360C2E6B
:10266C00D1D70134083609360A360B360E360450EB
:10267C0002A012D0085E0550D8A0053C095E065099
:10268C00D8A0063C0A5E0750D8A0073C0B5EE86A4F
:10269C00D8A0010E0E5E11D008260550D8B0053C0E
:1026AC0009260650D8B0063C0A260750D8B0073C7D
:1026BC000B26E86AD8B0010E0E260136070E0C6EFA
:1026CC000134083609360A360B360E36045001A092
:1026DC0012D0085E0550D8A0053C095E0650D8A063
:1026EC00063C0A5E0750D8A0073C0B5EE86AD8A0EF
:1026FC00010E0E5E11D008260550D8B0053C0926F7
:10270C000650D8B0063C0A260750D8B0073C0B261A
:10271C00E86AD8B0010E0E2601360C2ED1D7003443
:10272C00083609360A360B360E36045001A012D084
:10273C00085E0550D8A0053C095E0650D8A0063CA2
:10274C000A5E0750D8A0073C0B5EE86AD8A0010EC1
:10275C000E5E11D008260550D8B0053C092606504F
:10276C00D8B0063C0A260750D8B0073C0B26E86ABE
:10277C00D8B0010E0E260036070E0C6E003408364B
:10278C0009360A360B360E36045000A012D0085EFD
:10279C000550D8A0053C095E0650D8A0063C0A5E40
:1027AC000750D8A0073C0B5EE86AD8A0010E0E5E5D
:1027BC0011D008260550D8B0053C09260650D8B0D3
:1027CC00063C0A260750D8B0073C0B26E86AD8B05E
:1027DC00010E0E2600360C2ED1D700B00ED00450B0
:1027EC0008260550D8B0053C09260650D8B0063C42
:0C27FC000A260750D8B0073C0B2612003C
:1028080044C2E9FF45C2EAFFEECF00F0000E00BC6B
:10281800010E0201D06F040E4419006E00C044F28C
:102828001751080A0AE122C46EFF6E50000803E23D
:10283800100E176F02D0040E176F1D51010A2BE1FD
:10284800020E4425E16E000E4521E26E280E006E50
:10285800040E016E00C0E6FF01C0E6FF53EC09F06C
:102868002351020A07E144C2E1FF45C2E2FF840E98
:10287800E66E10D0D051000A07E144C2E1FF45C21C
:10288800E2FFC80EE66E06D044C2E1FF45C2E2FF91
:0C289800880EE66E02D027EC0FF0120054
:1028A40044C2E9FF45C2EAFFEECF00F000AE05D016
:1028B40044C2E1FF45C2E2FFE66A0201236B1D6BDD
:1028C400516B526B506BA9EC0EF0030E0201D36FE7
:1028D400000ED46FD56BD66BD76BD86BE5EC05F0D7
:0628E400D8EC0DF012001B
:1028EA0002011D51020A03E13CEC0DF01FD027EC56
:1028FA000FF02251000A19E1010E1525E16E000EB2
:10290A001621E26E080EE66E020E1525E16E000E25
:10291A001621E26E200EE66E040EE66E15C2E1FF87
:0E292A0016C2E2FF8C0EE66E01D0226B120088
:102938000050086E0150006E0250016E0350026E86
:10294800036A0B6A0C6A9E0E036E0A6A020E0C6E0C
:062958007BEC02F012000E
:10295E00B7C204F0B8C205F0B9C206F0BAC207F0A9
:10296E00006A016A026A036A2FEC08F0000ED8B002
:10297E00010E006E005205E0006A016A026A036AE7
:10298E0012000201B7C2BEF2B8C2BFF2B9C2C0F2A3
:10299E00BAC2C1F2BB0EC26F020EC36F75EC0BF062
:1029AE00000E046E000E056E000E066E800E076E93
:1029BE003AEC07F0000E046E000E056E000E066E69
:1029CE007F0E076E41EC06F000C0B7F201C0B8F200
:1029DE0002C0B9F203C0BAF2010EBB5F000EBC5BBF
:1029EE0000C0BEF201C0BFF202C0C0F203C0C1F20D
:1029FE007C0EC26F5B0EC36F000EC46F080EC56FE8
:102A0E00000EC66F9EEC0BF000C0B7F201C0B8F21C
:102A1E0002C0B9F203C0BAF2BBC200F0BCC201F0F0
:102A2E001CEC0CF0180E046E720E056E310E066E56
:102A3E007E0E076E3AEC07F0B7C204F0B8C205F08E
:0E2A4E00B9C206F0BAC207F097EC03F012000E
:102A5C00000E0201B81902E1000EB71902E1016A79
:102A6C0009D0B7C2E9FFB8C2EAFFEECF00F0016AA5
:0A2A7C0000BE012A01C000F01200A4
:102A86000134083609360450085E0550D8A0053CC6
:102A9600095E003601360F0E0C6E01340836093613
:102AA600045000A006D0085E0550D8A0053C095E7B
:102AB60005D008260550D8B0053C09260036013653
:102AC6000C2EEBD700B006D0045008260550D8B01F
:082AD600053C09260000120076
:102ADE00818682828292B7C207F0B8C208F0056A78
:102AEE00066A800E0618006E800E005C02E1100E63
:102AFE00055C32E2000E0714036E0850800B046E64
:102B0E000F0E026E03C000F004C001F0025005E08B
:102B1E0001320032019EFF0FFAD700B002D081942D
:102B2E0001D081848196100E0C6E940E0D6E0D2EBA
:102B3E00FED70C2EFCD700008186100E0C6E940E64
:102B4E000D6E0D2EFED70C2EFCD70000073607900B
:102B5E000836054A062AC5D7828281969C0E0C6ECF
:0E2B6E00D70E0D6E0D2EFED70C2EFCD71200CA
:0A2B7C00D08EA28AA08AF28E120009
:102B8600B7C202F0B8C203F0BAC200F0BBC201F08D
:102B9600010E0201BA5F000EBB5B0050011009E096
:102BA60002C0E1FF03C0E2FFB9C2E6FF024A032A00
:042BB600EBD7120047
:0E2BBA00570E0D6E0D2EFED70000000012000B
:102BC8002B0E02012C6F5B0E2D6F000E2E6F450E23
:102BD8002F6F5C0E306F000E316F170E326F5C0E68
:102BE800336F000E346FA00E356F5B0E366F000E1C
:042BF800376F120021
:102BFC000201BE6BBF6B23EC10F0F80E0F6F010ED1
:102C0C00106F800E006E800E1019005C02E10F51E7
:102C1C00000808E2CC6BB6EC05F0010E0F5F000E5D
:062C2C00105BEFD712005F
:102C3200C7B409D01F0EC514016E0150000A03E18A
:0A2C4200010E006E1200006A12007D
:0E2C4C00160E6F6E9F0E6B6E7B0E696E120081
:102C5A009E9695C2C9FFC7A401D0FDD79EB601D0E2
:102C6A00FDD7C5BC02D0006A1200C584020E006EF0
:022C7A00120046
:042C7C00A19A120007
:102C8000740E0201D36F000ED46FD56BD66BD76B69
:102C9000D86BE5EC05F06D92699468A403D0FB0E47
:062CA0006816FBD71200CC
:102CA6000201B76B35EC10F0010EB76F35EC10F082
:102CB600020EB76F35EC10F0030EB76F35EC10F05F
:102CC600040EB76F35EC10F0050EB76F35EC10F04B
:022CD6001200EA
:042CD800C58412009D
:102CDC0095C2BEF297C2BFF223EC10F09D6B9E6BB7
:102CEC00800E9E19006E800E9A19005C02E19951BB
:102CFC009D5D0DE29D519B25E96E9E519C21EA6ED6
:102D0C00EECFBEF271EC0BF09D4B9E2BE9D712006F
:102D1C00FD0E02012015016E026AFF0E0216000E56
:102D2C00021802E1000E01186BE17E0E2015016EF7
:102D3C0001C003F00332039E03C000F0000E016ECD
:102D4C00003600900136003600900136000E00244B
:102D5C00026E040E0120036E02C013F203C014F2C3
:102D6C0002C015F203C016F2040E1519006E00C055
:102D7C0015F202C0E9FF03C0EAFFEECF00F000C07D
:102D8C0001F03C0E01160132019E0132019E0150F0
:102D9C000D0A34E1020E1325E96E000E1421EA6EC1
:102DAC00EECF01F0EECF02F00250040A02E1280E41
:102DBC00011822E1020E1325E16E000E1421E26EC1
:102DCC00200EE66E040EE66ECF6B080ECF5D14E29D
:102DDC00200EE16E040EE26ECF51E126D8B0E22A4D
:102DEC00280EE96E040EEA6ECF51E926D8B0EA2A15
:102DFC00EECFE6FFCF2BE9D74FDD01D070DD0DD044
:102E0C00FD0E2015016E026AFF0E0216000E02184E
:0C2E1C0002E1040E011801E1F1DC1200DB
:102E280002011751000A0AE16D6A696A0BDFA2DE26
:0E2E38006DB602D06D86FCD7010E176F12002A
:102E4600C0DE496B4A6B4B6B4C6B6A6A686AFBDE89
:102E56006D8C6E6A710EB76F0F0EB86FB96B010E7F
:102E6600BA6F000EBB6F8CDE6D9C956B080E955D80
:102E760016E295C200F0000E016E00360090013693
:102E8600003600900136000E0024E16E040E01208B
:102E9600E26EE66AE66AE66AE66A952BE7D7160EFA
:102EA600706E68A603D0F70E6816FBD7506B3D6BA5
:102EB6003E6B3F6B6D98080E446F040E456F486B72
:042EC600176B120074
:102ECA007EDE496B4A6B4B6B4C6B6A6A686AB9DE89
:102EDA006D8C6E6A710ED36F0F0ED46FD56B010EA7
:102EEA00D66F000ED76F27EC06F06D9CCF6B080EDD
:102EFA00CF5D16E2CFC200F0000E016E00360090E0
:102F0A000136003600900136000E0024E16E040EF0
:102F1A000120E26EE66AE66AE66AE66ACF2BE7D73E
:102F2A00160E706E68A603D0F70E6816FBD7506BA4
:102F3A003D6B3E6B3F6B6D98080E446F040E456FF8
:062F4A00486B176B12003A
:102F50006984EF0E68166D82750E0201D36F000E44
:102F6000D46FD56BD66BD76BD86BE5EC05F0120040
:102F700070A019D013C2E9FF14C2EAFFEECF01F02E
:102F80000150800A0FE144C2E9FF45C2EAFFEECFDB
:102F900001F00150840A06E113C2E1FF14C2E2FF0E
:0C2FA0008C0EE66E7090DF0E68161200BA
:102FAC000201956B966B9651120802E195518E08B1
:102FBC0008E339DE005201E004D00201954B962B58
:102FCC00F2D70201120E965D02E18F0E955D03E3BE
:102FDC007B0E006E1200C580C5A001D0FDD7006A23
:022FEC001200D1
:102FEE0000C008F00B6A0C6A9E0E036E0A6A026A33
:0E2FFE00016A006A020E0C6E7BEC02F01200FB
:10300C00200E0201175D03E36DB201D002D0006AFD
:10301C0012004BC2B7F24CC2B8F21ADD005219E1E1
:10302C0098C2B7F2010EB86F95C2B9F296C2BAF255
:10303C0097C2BBF2E2EC10F000C04BF201C04CF2B4
:10304C00010E0024E96E000E0120EA6EEECF00F0B6
:06305C001200006A1200E0
:103062000201A16B046A056A066A076A95C200F04A
:1030720096C201F097C202F098C203F00CEC10F075
:10308200010ED8A4000E006E005205E0006A016A2B
:10309200026A036A1200046A056A066A076A99C22A
:1030A20000F09AC201F09BC202F09CC203F00CEC49
:1030B20010F0010ED8A4000E006E005209E0000EBE
:1030C200006E000E016E000E026E7F0E036E120085
:1030D200046A056A066A076A95C200F096C201F0A0
:1030E20097C202F098C203F02FEC08F0010ED8B09C
:1030F200000E006E00522CE099C200F09AC201F05C
:103102009BC202F09CC203F046EC10F000C09DF29C
:1031120001C09EF202C09FF203C0A0F20CDC99C271
:1031220004F09AC205F09BC206F09CC207F00CECB8
:1031320010F0000ED8A4010E006E005205E0006AE5
:10314200016A026A036A1200010E9D15A16F977F40
:1031520095C2B7F296C2B8F297C2B9F298C2BAF261
:10316200AFEC14F000C095F201C096F202C097F2E3
:1031720003C098F299C204F09AC205F09BC206F00D
:103182009CC207F03AEC07F000C095F201C096F23B
:1031920002C097F203C098F200C0B7F201C0B8F2C1
:1031A20002C0B9F203C0BAF272EC11F000C095F29B
:1031B20001C096F202C097F203C098F20201A15335
:1031C2000DE0000E9519006E000E9619016E800E2C
:1031D2009719026E000E9819036E120095C200F044
:0E31E20096C201F097C202F098C203F01200EC
:1031F0000201B56BB66B819481968198819A9C0E81
:103200000C6ED70E0D6E0D2EFED70C2EFCD78184C2
:103210009C0E0C6ED70E0D6E0D2EFED70C2EFCD70D
:10322000000E81BC010E956F966B000E81BE010EE3
:10323000976F986B000E80B4010E996F9A6B000E19
:1032400080B6010E9B6F9C6B819481869C0E0C6EE8
:10325000D70E0D6E0D2EFED70C2EFCD7000E81BCA6
:10326000010E9D6F9E6B000E81BE010E9F6FA06BC5
:10327000000E80B4010EA16FA26B000E80B6010E8D
:10328000A36FA46B819681889C0E0C6ED70E0D6E79
:103290000D2EFED70C2EFCD7000E81BC010EA56FA3
:1032A000A66B000E81BE010EA76FA86B000E80B446
:1032B000010EA96FAA6B000E80B6010EAB6FAC6B4E
:1032C0008198818A9C0E0C6ED70E0D6E0D2EFED746
:1032D0000C2EFCD7000E81BC010EAD6FAE6B000E44
:1032E00081BE010EAF6FB06B000E80B4010EB16FE6
:1032F000B26B000E80B6010EB36FB46B819A056A93
:10330000066A800E0618006E800E005C02E1040E54
:10331000055C54E2076A086A800E0818006E800E89
:10332000005C02E1040E075C46E2030E026E05C07B
:1033300000F006C001F0025005E0003600900136B2
:10334000FF0FFAD7950E0024036E020E0120046EC3
:1033500007C000F008C001F00036009001360050B0
:103360000324E96E01500420EA6EEECF01F0EECFA7
:1033700002F0000E021802E1010E011819E102012B
:1033800005C0B5F206C0B6F2B537B591B637B53758
:10339000B591B6370750B5270850B623B54BB62BB5
:1033A000050E056E000E066E050E076E000E086E09
:1033B000074A082AB1D7054A062AA3D759D00201DD
:1033C000140EB56F000EB66FBBD0010EB56F000EB8
:1033D000B66FB6D0020EB56F000EB66FB1D0030E49
:1033E000B56F000EB66FACD0150EB56F000EB66F90
:1033F000A7D0040EB56F000EB66FA2D0050EB56F44
:10340000000EB66F9DD0060EB56F000EB66F98D049
:10341000160EB56F000EB66F93D0070EB56F000E87
:10342000B66F8ED0080EB56F000EB66F89D0090E3C
:10343000B56F000EB66F84D0170EB56F000EB66F65
:103440007FD0190EB56F000EB66F7AD0B56BB66B24
:1034500077D01A0EB56F000EB66F72D0180EB56F1A
:10346000000EB66F6DD0140EB56F000EB66F68D03B
:103470000201000EB61902E1000EB519A0E0000E1F
:10348000B61902E1010EB519A0E0000EB61902E16D
:10349000020EB5199FE0000EB61902E1030EB51930
:1034A0009EE0000EB61902E1040EB5199DE0000E73
:1034B000B61902E1050EB5199CE0000EB61902E13D
:1034C000060EB5199BE0000EB61902E1070EB519FC
:1034D0009AE0000EB61902E1080EB51999E0000E47
:1034E000B61902E1090EB51998E0000EB61902E10D
:1034F0000A0EB51997E0000EB61902E10B0EB519C8
:1035000096E0000EB61902E10C0EB51995E0000E1A
:10351000B61902E10D0EB51994E0000EB61902E1DC
:103520000E0EB51993E0000EB61902E10F0EB51993
:1035300090E0000EB61902E1100EB5198FE093D796
:0A354000B5C200F0B6C201F012009F
:10354A00C26A070EC012C08E95C200F00036009003
:10355A00003600900050C212C280DDEC15F0C28223
:10356A00C2A201D0FDD7C4CF01F0006AC350001235
:08357A00000E0112C2901200C4
:10358200000E0201961902E1000E951902E18098DF
:10359200809A000E961902E1010E951902E18088C7
:1035A200809A000E961902E1020E951902E18098A6
:1035B200808A000E961902E1030E951902E18088B5
:0435C200808A1200E9
:1035C600000E0201961902E1000E951906E1D30ECE
:1035D600B76F0F0EB86F6FEC15F0000E020196195B
:1035E60002E1010E951906E1D30EB76F0D0EB86F05
:0635F6006FEC15F012005D
:1035FC00220E0C6E086A096A0A6A0B6A0C06D8B4A9
:10360C001FD0D8900B320A32093208320332023200
:10361C0001320032D8A0F2D70C06D8B409D004502D
:10362C0008260550092206500A2207500B22EAD719
:10363C00045008260550092206500A2207500B2276
:02364C0012006A
:10364E00828C828E82949C0E0C6ED70E0D6E0D2E79
:10365E00FED70C2EFCD78284210E0201CB6FCDEC4F
:10366E0007F0C20ECB6FCDEC07F0130ECB6FCDEC87
:10367E0007F0200ECB6FCDEC07F0090ECB6FCDEC23
:10368E0007F0FEEC15F0080ECB6FCDEC07F00C0E2C
:08369E00CB6FCDEC07F0120028
:1036A60002019B6B9C6B000E9C5D02E10A0E9B5D0A
:1036B6000BE29B519925E16E9C519A21E26E200EF8
:1036C600E66E9B4B9C2BEFD79B519925E16E9C5147
:1036D6009A21E26EE66A010E9B5F000E9C5B9B518F
:1036E60099259D6F9C519A219E6F0A0E046E000EBD
:1036F600056E066E076E95C200F096C201F097C27F
:1037060002F098C203F08EEC12F008C000F009C077
:1037160001F00AC002F00BC003F0300E00269DC275
:10372600E1FF9EC2E2FF00C0E6FF0A0E046E000E35
:10373600056E066E076E95C200F096C201F097C23E
:1037460002F098C203F08EEC12F000C095F201C0B0
:1037560096F202C097F203C098F2000E046E0318A8
:1037660008E10450021805E10450011802E1005076
:10377600000A01E105D0010E9B5F000E9C5BAFD7EE
:0237860012002F
:10378800939093928A908A9293809382C79EC79CC3
:06379800380EC66E12009F
:10379E00210E0201CB6FCDEC07F0800E9511CB6F91
:0E37AE00CDEC07F0200ECB6FCDEC07F0120033
:1037BC000450000A08E10550000A05E1FF0E006EF6
:1037CC007F0E016E12000D6A096A086A0150001022
:1037DC00D8B4000C015005180A6E0ABE0D1E0B6AF7
:1037EC0005AE05D0041E051E042AD8B4052A01AE68
:1037FC0005D0001E011E002AD8B4012A0150051064
:10380C000A6E0ABE10D043EC15F00BB020D00DAEF2
:10381C00000C001E011E002AD8B4012A081E091E25
:10382C00082AD8B4092A000C05AE0DD001BE07D069
:10383C000150096E0050086E016A006AE8D7016AEF
:10384C00006A002A000C011E001E0B2ADDD7082A74
:10385C00D8B4092A0450085CD8A4D9D70550095CFF
:10386C00D8A4D5D7096A086A002AD8B4012A01AEAF
:08387C00CED70000FF0C120082
:1038840095C225F296C226F2000E0201276F286F18
:06389400010E386F120066
:10389A0095C2BEF297C2BFF223EC10F0300E992502
:0838AA00BE6F71EC0BF012007F
:1038B2000900F5CFE6FF0006FBE10106F9E112007F
:1038C2007FC200F080C201F081C202F082C203F026
:1038D200000E046E000E056E000E066E970E076E49
:1038E2003AEC07F0200E046EBC0E056E3E0E066E1C
:1038F200980E076E4EEC0FF046EC10F00C0E086EB0
:1039020000C004F001C005F002C006F003C007F0D9
:10391200085007E00732063205320432079EFF0FD5
:10392200F8D7FF0E04140201836F05500F0B846F4A
:10393200FF0E00160F0E0116000E0010B76F015099
:10394200C009B86F6FEC15F0000E02018311B76F5A
:0C3952008451D009B86F6FEC15F0120022
:10395E00020E0201B76F100EB86F6FEC15F0000E6D
:10396E000201B76F200EB86F6FEC15F0000E02015A
:10397E00B76F300EB86F6FEC15F0020E0201B76F15
:0A398E00600EB86F6FEC15F0120028
:1039980002017F6B806B140E816F000E826F836B48
:1039A800846B856B866B876B886B896B000E8A6F5F
:1039B800000E8B6F200E8C6F830E8D6F130E0B6EA7
:1039C800440E0C6E440E0D6E0D2EFED70C2EFCD739
:1039D8000B2EFAD7000053EC16F0010E956F000E6F
:1039E800966F010E976F000E986F0C0E996F000E70
:1039F8009A6F830E9B6F010E9C6F6EEC16F0010E92
:103A0800956F000E966F020E976F000E986F040E5A
:103A1800996F000E9A6F900E9B6F010E9C6F6EEC63
:103A280016F0140E816F000E826F000E821902E1EB
:103A3800140E811907E1F8EC18F000C081F201C0FA
:103A480082F2F3D7130E0B6E440E0C6E440E0D6EFD
:103A58000D2EFED70C2EFCD70B2EFAD7000053ECF8
:103A680016F0000E821902E1010E8119D8A48ED039
:103A7800010E956F000E966F010E976F000E986FEE
:103A88000A0E996F000E9A6F6A0E9B6F010E9C6F5B
:103A98006EEC16F0010E956F000E966F030E976F81
:103AA800000E986F0D0E996F000E9A6F750E9B6F32
:103AB800010E9C6F6EEC16F08E6B7F6B806B800E28
:103AC8008019006E800E005C02E1070E7F5D5AE2ED
:103AD800140E816F000E826F000E821902E1140E1F
:103AE800811907E1F8EC18F000C081F201C082F2F8
:103AF800F3D7130E0B6E440E0C6E440E0D6E0D2E86
:103B0800FED70C2EFCD70B2EFAD70000800E821998
:103B1800006E800E005C02E10A0E815D08E2830EF1
:103B28007F25E16E020E8021E26E81C2E6FF000E63
:103B3800801902E1010E7F1907E0000E801902E1E9
:103B4800040E7F1901E002D0020E8E278E517F25C8
:103B5800006E000E8021016E060E046E000E056ECA
:103B6800BDEC05F0010E0024956F000E0120966F44
:103B7800030E976F000E986F81C299F28ADE7F4B11
:103B8800802B9DD70A0E816F000E826F000E82195E
:103B980002E1020E8119D8A490D0010E956F000E93
:103BA800966F010E976F000E986F0A0E996F000EB0
:103BB8009A6FFE0E9B6F010E9C6F6EEC16F0010E55
:103BC800956F000E966F030E976F000E986F0D0E8F
:103BD800996F000E9A6FF00E9B6F010E9C6F6EEC42
:103BE80016F08E6B010E7F6F000E806F800E8019AD
:103BF800006E800E005C02E1070E7F5D5AE2140E33
:103C0800816F000E826F000E821902E1140E811975
:103C180007E1F8EC18F000C081F201C082F2F3D796
:103C2800130E0B6E440E0C6E440E0D6E0D2EFED749
:103C38000C2EFCD70B2EFAD70000800E8219006ECE
:103C4800800E005C02E10A0E815D08E2830E7F258A
:103C5800E16E020E8021E26E81C2E6FF000E80193D
:103C680002E1010E7F1907E0000E801902E1040E3F
:103C78007F1901E002D0020E8E278E517F25006E3B
:103C8800000E8021016E060E046E000E056EBDEC5E
:103C980005F0010E0024956F000E0120966F030EAB
:103CA800976F000E986F81C299F2F3DD7F4B802BDE
:103CB8009DD70A0E816F000E826F000E821902E1F5
:103CC800030E8119D8A47DD0010E956F000E966F52
:103CD800010E976F000E986F0A0E996F000E9A6F7B
:103CE800CA0E9B6F010E9C6F6EEC16F0010E956F5D
:103CF800000E966F030E976F000E986F0D0E996F5A
:103D0800000E9A6FE20E9B6F010E9C6F6EEC16F020
:103D18008E6B040E7F6F000E806F800E8019006E10
:103D2800800E005C02E1070E7F5D4BE2140E816F8E
:103D3800000E826F000E821902E1140E811907E14C
:103D4800F8EC18F000C081F201C082F2F3D7130E2C
:103D58000B6E440E0C6E440E0D6E0D2EFED70C2EFF
:103D6800FCD70B2EFAD70000800E8219006E800E49
:103D7800005C02E10A0E815D08E2830E7F25E16E98
:103D8800020E8021E26E81C2E6FF040E7F25006EDE
:103D9800000E8021016E060E046E000E056EBDEC4D
:103DA80005F0010E0024956F000E0120966F030E9A
:103DB800976F000E986F81C299F26BDD7F4B802B55
:103DC800ACD70A0E816F000E826F7F6B806B800EFE
:103DD8008019006E800E005C02E1070E7F5D50E2E4
:103DE800830E7F25936F020E8021946F000E956FCE
:103DF800000E966F200E976F820E986F7F510608FF
:103E0800006E80C201F0000E01561CEC0CF000C0E0
:103E180099F201C09AF202C09BF203C09CF231EC05
:103E280018F000C08FF201C090F202C091F203C0F6
:103E380092F293C2E9FF94C2EAFFEECF00F0F7ECEA
:103E480017F08FC204F090C205F091C206F092C23A
:103E580007F03AEC07F08AC204F08BC205F08CC276
:103E680006F08DC207F097EC03F000C08AF201C09B
:103E78008BF202C08CF203C08DF27F4B802BA7D748
:103E88001F0E0B6E710E0C6E1E0E0D6E0D2EFED7D4
:103E98000C2EFCD70B2EFAD700008AC200F08BC27A
:0C3EA80001F08CC202F08DC203F0120089
:083EB400780EC86E67DC1200F5
:103EBC00D6EC17F0980E956F2DEC16F0040E026EE2
:103ECC007FC200F080C201F0025007E001320032E4
:103EDC00019E01BC018EFF0FF8D700C095F22DECAE
:103EEC0016F0040E006E7FC295F2005005E0020140
:103EFC0095379591FF0FFAD72DEC16F06CEC16F068
:023F0C001200A1
:103F0E00010E0201956F000E966F010E976F000E57
:103F1E00986F060E996F000E9A6F5C0E9B6F010ED6
:103F2E009C6F6EEC16F02D0E956F000E966F010EB7
:103F3E00976F000E986F060E996F000E9A6F550EC2
:103F4E009B6F010E9C6F6EEC16F0010E956F000EBE
:103F5E00966F020E976F000E986F060E996F000EF9
:103F6E009A6F630E9B6F010E9C6F6EEC16F02D0E0A
:103F7E00956F000E966F020E976F000E986F060EDD
:103F8E00996F000E9A6FA30E9B6F010E9C6F6EECD5
:103F9E0016F0010E956F000E966F030E976F000EC2
:103FAE00986F060E996F000E9A6FAA0E9B6F010EF8
:103FBE009C6F6EEC16F02D0E956F000E966F030E25
:103FCE00976F000E986F060E996F000E9A6F950EF2
:103FDE009B6F010E9C6F6EEC16F0010E956F000E2E
:103FEE00966F040E976F000E986F060E996F000E67
:103FFE009A6F9C0E9B6F010E9C6F6EEC16F02D0E41
:10400E00956F000E966F040E976F000E986F060E4A
:10401E00996F000E9A6FB10E9B6F010E9C6F6EEC36
:10402E0016F0010E956F000E966F050E976F000E2F
:10403E00986F040E996F000E9A6FB80E9B6F010E5B
:08404E009C6F6EEC16F01200ED
:1040560082903D0E0B6EE10E0C6E3F0E0D6E0D2E18
:10406600FED70C2EFCD70B2EFAD70000000082805C
:02407600120036
:1040780002017F6B806B140E816F000E826F836B61
:10408800846B856B866B876B886B896B8A6B8B6B94
:104098008C6B390E8D6F300E8E6F53EC16F01F0E31
:1040A8000B6E710E0C6E1E0E0D6E0D2EFED70C2EA5
:1040B800FCD70B2EFAD70000010E956F000E966FF5
:1040C800010E976F000E986F0E0E996F000E9A6F83
:1040D800E10E9B6F000E9C6F6EEC16F0010E956F53
:1040E800000E966F020E976F000E986F0E0E996F66
:1040F800000E9A6FF00E9B6F000E9C6F6EEC16F020
:10410800010E956F000E966F040E976F000E986F54
:10411800080E996F000E9A6FFF0E9B6F000E9C6F32
:104128006EEC16F0000E821902E1140E8119D8A463
:104138001BD1F8EC18F000C081F201C082F27F6B4D
:10414800806B800E8019006E800E005C02E1640EA8
:104158007F5D58E2010E956FA5EC1AF000C091F250
:1041680001C092F2800E02019019026E800E0118B1
:10417800025C02E100508F5D04E291C28FF292C2AC
:1041880090F28FC200F090C201F01CEC0CF0000E0F
:10419800046E400E056E1C0E066E8B0E076E3AEC12
:1041A80007F0000E046EC00E056E7F0E066E880EB8
:1041B800076E4EEC0FF0000E046E000E056E400EFA
:1041C800066E810E076E3AEC07F0260E046EB40EEA
:1041D800056E170E066E7D0E076E3AEC07F007ECBB
:1041E8000BF000C08DF201C08EF2100E0C6E940E12
:1041F8000D6E0D2EFED70C2EFCD7000002017F4B52
:10420800802B9FD78F6B906B0A0E046E000E056E85
:104218008DC200F08EC201F0DEEC1BF008C000F089
:1042280009C001F000C083F201C084F20A0E046ED6
:10423800000E056E8DC200F08EC201F0DEEC1BF0A0
:104248000A0E046E000E056EDEEC1BF008C000F0CE
:1042580009C001F000C085F201C086F2640E046E48
:10426800000E056E8DC200F08EC201F0DEEC1BF070
:104278000A0E046E000E056EDEEC1BF008C000F09E
:1042880009C001F000C087F201C088F2E80E046E90
:10429800030E056E8DC200F08EC201F0DEEC1BF03D
:1042A8000A0E046E000E056EDEEC1BF008C000F06E
:1042B80009C001F000C089F201C08AF2100E046E34
:1042C800270E056E8DC200F08EC201F0DEEC1BF0E9
:1042D8000A0E046E000E056EDEEC1BF008C000F03E
:1042E80009C001F000C08BF201C08CF2010E02017E
:1042F800956F000E966F040E976F000E986F00C0B2
:1043080099F24DEC1CF0060E956F000E966F040E98
:10431800976F000E986F89C299F24DEC1CF0150E3C
:10432800956F000E966F040E976F000E986F87C2F8
:1043380099F24DEC1CF01A0E956F000E966F040E54
:10434800976F000E986F85C299F24DEC1CF01F0E06
:10435800956F000E966F040E976F000E986F83C2CC
:1043680099F24DEC1CF0DED60A0E816F000E826FBA
:02437800120031
:10437A00010E0201296F7FC22AF280C22BF281C28A
:10438A0039F282C23AF223EC17F0010E016E0150A3
:0A439A00010A02E114EC17F0120012
:1043A4000050086E0150006E016A026A036A0B6ACB
:1043B4000C6A960E036E0A6A00C001F008C000F091
:0A43C400086A026AFEEC06F012001F
:1043CE00E00E0201816F2E0E826F000E836F846FDE
:1043DE007FC200F080C201F0000E026E036EE00E8E
:1043EE00046E2E0E056E000E066E000E076EFEECAF
:1043FE001AF000C081F201C082F202C083F203C043
:10440E0084F2000E035C08E1000E025C05E1020E70
:10441E00015C02E1940E005CD8A012000201940E21
:10442E00815F020E825B000E835B845B050E006E65
:10443E00005007E08433833382338133849FFF0F30
:10444E00F8D781C200F082C201F083C202F084C2AA
:10445E0003F0010E815F000E825B835B845B005074
:10446E000110021003100CE000000000000000001C
:10447E000000000000000000000000000000E1D776
:02448E0012001A
:1044900002011751010A07E16DBA05D0686A698007
:1044A0006988020E176F68A406D069A404D0FB0EB9
:1044B000681640EC16F06DA203D03EEC16F0120028
:1044C00068A019D069A017D065EC17F0040E176F1B
:1044D000200E0401026F040E036F080E016F000E20
:1044E0000015006E00C000F48C0E0011006E00C0BC
:1044F00000F4FE0E681668A806D069A804D0A8ECDF
:1045000017F0EF0E681668AC11D069AC0FD0730EBF
:104510000201D36F000ED46FD56BD66B010ED76F2F
:10452000000ED86FE5EC05F0BF0E681668AA04D03F
:1045300069AA02D0B8EC17F068A210D069A20ED018
:10454000FF0E0201D36F3F0ED46FD56BD66B010EF9
:10455000D76F000ED86FE5EC05F06A6A040E020111
:10456000175D03E23EEC16F0120069A624D0CE6B74
:10457000040ECE5D20E268A61AD06CCF20F2F70EB2
:104580006816780E2015016E0150000A03E18EECCA
:1045900016F00CD0720ED36F000ED46F200ED56FB4
:1045A000020ED66FD76BD86BE5EC05F001D003D0C7
:0C45B0000201CE2BDDD73EEC16F012000D
:1045BC000201385306E1010E956F000E966F42EC26
:1045CC001CF025C200F026C201F027C202F028C25E
:1045DC0003F06D0E046E4E0E056EC60E066E410E89
:1045EC00076EFEEC1AF0390E0024056E300E012019
:1045FC00066E000E0220076E000E0320086E07C028
:10460C0000F008C001F0000E08BEFF0E036EFF0E96
:10461C0000167F0E0116000E0216031600C025F2BE
:0E462C0001C026F202C027F203C028F21200DD
:10463A0002017F6B806B140E816F000E826F836B99
:10464A00846B856B866B876B886B896B000E8A6FB0
:10465A00000E8B6F200E8C6F830E8D6F130E0B6EF8
:10466A00440E0C6E440E0D6E0D2EFED70C2EFCD78A
:10467A000B2EFAD7000053EC16F0140E816F000EC1
:10468A00826F010E956F000E966F010E976F000EE6
:10469A00986F0A0E996F000E9A6FBA0E9B6F000EF2
:1046AA009C6F6EEC16F0010E956F000E966F030E5E
:1046BA00976F000E986F0D0E996F000E9A6FC50EC8
:1046CA009B6F000E9C6F6EEC16F08E6B010E7F6F67
:1046DA00000E806F800E8019006E800E005C02E171
:1046EA00070E7F5D5BE2140E816F000E826F000E73
:1046FA00821902E1140E811907E1F8EC18F000C0E2
:10470A0081F201C082F2F3D7130E0B6E440E0C6EC7
:10471A00440E0D6E0D2EFED70C2EFCD70B2EFAD79B
:10472A000000800E8219006E800E005C02E10A0E03
:10473A00815D08E2830E7F25E16E020E8021E26E22
:10474A0081C2E6FF000E801902E1010E7F1907E01F
:10475A00000E801902E1040E7F1901E002D0020E58
:10476A008E278E517F25006E000E8021016E060E67
:10477A00046E000E056EBDEC05F0010E0024956F67
:10478A00000E0120966F030E976F000E986F81C27C
:10479A0099F24DEC1CF07F4B802B9CD70A0E816F4F
:1047AA00000E826F7F6B806B800E8019006E800E08
:1047BA00005C02E1070E7F5D50E2830E7F25936F56
:1047CA00020E8021946F000E956F000E966F200ED8
:1047DA00976F820E986F7F510608006E80C201F0B3
:1047EA00000E01561CEC0CF000C099F201C09AF2BE
:1047FA0002C09BF203C09CF231EC18F000C08FF2A9
:10480A0001C090F202C091F203C092F293C2E9FF92
:10481A0094C2EAFFEECF00F0F7EC17F08FC204F073
:10482A0090C205F091C206F092C207F03AEC07F086
:10483A008AC204F08BC205F08CC206F08DC207F062
:10484A0097EC03F000C08AF201C08BF202C08CF22E
:10485A0003C08DF27F4B802BA7D71F0E0B6E710EF4
:10486A000C6E1E0E0D6E0D2EFED70C2EFCD70B2EC7
:10487A00FAD700008AC200F08BC201F08CC202F0A3
:06488A008DC203F01200D4
:10489000140E02017F6F000E806F130E0B6E440E1C
:1048A0000C6E440E0D6E0D2EFED70C2EFCD70B2E6B
:1048B000FAD7000053EC16F0010E956F000E966FBC
:1048C000010E976F000E986F0C0E996F000E9A6F85
:1048D000BD0E9B6F010E9C6F6EEC16F0010E956F76
:1048E000000E966F020E976F000E986F0C0E996F68
:1048F000000E9A6FD50E9B6F010E9C6F6EEC16F03A
:10490000010E956F000E966F030E976F000E986F55
:10491000050E996F000E9A6F090E9B6F020E9C6F29
:104920006EEC16F0140E7F6F000E806F000E801973
:1049300002E1140E7F1907E1F8EC18F000C07FF2D5
:1049400001C080F2F3D7130E0B6E440E0C6E440EB2
:104950000D6E0D2EFED70C2EFCD70B2EFAD70000B5
:1049600053EC16F0000E801902E1010E7F190FE1E1
:10497000010E956F000E966FC1EC1AF0956B966B59
:10498000E3EC1AF00A0E02017F6F000E806F000E3A
:10499000801902E1020E7F190AE1020E956F000EE6
:1049A000966FC1EC1AF00A0E7F6F000E806F000E3A
:1049B000801902E1030E7F1911E1010E956F000EBF
:1049C000966FC1EC1AF0010E956F000E966FE3EC36
:1049D0001AF00A0E02017F6F000E806F000E801920
:1049E00002E1040E7F1908E1956B966BC1EC1AF099
:1049F0000A0E7F6F000E806F000E801902E1050E17
:104A00007F190AE1030E956F000E966FC1EC1AF044
:0A4A10000A0E7F6F000E806F120087
:104A1A000201876B886B7FC289F280C28AF281C2E7
:104A2A008BF282C28CF2800E8219006E800E005CBC
:104A3A0008E1000E815D05E1000E805D02E1000ED5
:104A4A007F5D10E2010E876F000E886F896B8A6B9B
:104A5A008B6B8C6B7F51895F80518A5B81518B5B39
:104A6A0082518C5B89C295F28AC296F28BC297F206
:104A7A008CC298F283C299F284C29AF253EC1BF068
:104A8A000B0E856F000E866F000E006E8651005C5D
:104A9A0002E18551000819E285518325E16E8651AC
:104AAA008421E26E010E855D006E000E8659016E4C
:104ABA0000508325E96E01508421EA6EEECFE6FFAD
:104ACA00010E855F000E865BDFD783C2E1FF84C2D9
:104ADA00E2FF200EE66E875188111AE0856B866B1D
:104AEA0085518325E96E86518421EA6EEE50200AAB
:104AFA0003E1854B862BF4D7010E855F000E865B9A
:104B0A0085518325E16E86518421E26E2D0EE66E73
:024B1A00120087
:104B1C0027EC1BF09C0E0C6ED70E0D6E0D2EFED7D7
:104B2C000C2EFCD753EC16F09C0E0C6ED70E0D6EA3
:104B3C000D2EFED70C2EFCD7FEEC15F05A0E956FF1
:064B4C00CFEC1BF012008B
:104B52007FC295F280C296F281C297F2010E0201E3
:084B6200986F06EC18F0120038
:104B6A0025EC2EF0E30EF66E5B0EF76E000EF86E75
:104B7A00570EE16E020EE26E120E006E010E016E0B
:104B8A0059EC1CF08B6A946A826A070EB46EC00EE6
:104B9A00936E896A806A0D0EC16E0F0E926E5AEC80
:104BAA001FF0FF0E02017F6F000E806F5EEC1FF098
:104BBA008280070E0B6E170E0C6E6A0E0D6E0D2E8E
:104BCA00FED70C2EFCD70B2EFAD700000201956BEC
:104BDA00966BE3EC1AF0AFEC1CF0000E02017F6F4B
:104BEA00050E806F400E816F050E826FBDEC21F0BD
:104BFA0090DF030E956F000E966FC1EC1AF053EC1E
:104C0A0016F0010E956F000E966F020E976F000E4A
:104C1A00986F0D0E996F000E9A6FD30E9B6F000E50
:104C2A009C6F6EEC16F0010E956F000E966F040ED7
:104C3A00976F000E986F0D0E996F000E9A6F090EFE
:104C4A009B6F010E9C6F6EEC16F0B70E0B6EA10EE9
:104C5A000C6EC30E0D6E0D2EFED70C2EFCD70B2E2E
:104C6A00FAD70000000053EC16F0010E956F000E03
:104C7A00966F020E976F000E986F0D0E996F000EC9
:104C8A009A6F350E9B6F010E9C6F6EEC16F0010E3B
:104C9A00956F000E966F040E976F000E986F080EB0
:104CAA00996F000E9A6F430E9B6F010E9C6F6EEC0C
:104CBA0016F0010E956F000E966F050E976F000E97
:104CCA00986F080E996F000E9A6F4C0E9B6F010E2B
:104CDA009C6F6EEC16F0B70E0B6EA10E0C6EC30E27
:104CEA000D6E0D2EFED70C2EFCD70B2EFAD7000018
:104CFA00000053EC16F087EC1FF0140E676F000EDD
:104D0A00686F000E681902E1140E671907E1F8ECE2
:104D1A0018F000C067F201C068F2F3D7000E6819F4
:104D2A0002E1010E671926E1CCEC1CF0000E046EBC
:104D3A00000E056E100E066E830E076E41EC06F02D
:104D4A0000C07FF201C080F202C081F203C082F289
:104D5A0061EC1CF02BEC20F00D0E0B6E2D0E0C6E80
:104D6A00D70E0D6E0D2EFED70C2EFCD70B2EFAD7B2
:104D7A0000000000000E0201681902E1020E671924
:104D8A0014E13CEC20F00A0E676F000E686F0D0EFE
:104D9A000B6E2D0E0C6ED70E0D6E0D2EFED70C2E31
:104DAA00FCD70B2EFAD700000000000E681902E1AA
:104DBA00030E671915E153EC16F065DD0A0E676FED
:104DCA00000E686F0D0E0B6E2D0E0C6ED70E0D6E4B
:104DDA000D2EFED70C2EFCD70B2EFAD700000000A2
:104DEA00000E681902E1040E6719D8A48BD01F0EB1
:104DFA000B6E710E0C6E1E0E0D6E0D2EFED70C2E46
:104E0A00FCD70B2EFAD7000053EC16F0010E956F63
:104E1A00000E966F010E976F000E986F100E996F25
:104E2A00000E9A6F170E9B6F010E9C6F6EEC16F0B8
:104E3A00010E956F000E966F030E976F000E986F16
:104E4A00100E996F000E9A6F260E9B6F010E9C6FC3
:104E5A006EEC16F0140E676F000E686F000E68197C
:104E6A0002E1140E67193CE1F8EC18F000C067F291
:104E7A0001C068F2116B400E115D27E2400E7B6F94
:104E8A00050E7C6F11517B27D8B07C2B956BA5EC56
:104E9A001AF000C002F001C003F003320232039E8E
:104EAA0003320232039E7BC2E1FF7CC2E2FF02C0F0
:104EBA00E6FF100E0C6E940E0D6E0D2EFED70C2E04
:104ECA00FCD700000201112BD6D7400E7F6F050ECA
:104EDA00806F400E816F38DE005201E1F6D7BED7EF
:104EEA000A0E676F000E686F0D0E0B6E2D0E0C6E9C
:104EFA00D70E0D6E0D2EFED70C2EFCD70B2EFAD721
:104F0A0000000000000E681902E1050E6719D8A416
:104F1A0084D01F0E0B6E710E0C6E1E0E0D6E0D2EB2
:104F2A00FED70C2EFCD70B2EFAD7000053EC16F046
:104F3A00140E676F000E686F000E681902E1140EF6
:104F4A00671959E1F8EC18F000C067F201C068F27D
:104F5A0053EC16F0116B540E115D4CE2956BA5ECF7
:104F6A001AF000C06BF201C06CF211C2BEF2AA0EB6
:104F7A00046E000E056EDEEC1BF000C0BFF223ECDF
:104F8A0010F0000E956F000E966F000E976F800E50
:104F9A00986FAA0E046E000E056E6BC200F06CC20A
:104FAA0001F0DEEC1BF008C000F009C001F0160E9B
:104FBA00046E000E056EDEEC1BF01CEC0CF000C05B
:104FCA0099F201C09AF202C09BF203C09CF231EC42
:104FDA0018F007EC0BF000C0CCF2B6EC05F0100E9E
:104FEA000C6E940E0D6E0D2EFED70C2EFCD7000003
:104FFA00112BB1D7A1D70A0E676F000E686F0D0E7D
:10500A000B6E2D0E0C6ED70E0D6E0D2EFED70C2EBE
:10501A00FCD70B2EFAD700000000000E681902E137
:10502A00060E6719D8A497D01F0E0B6E710E0C6E60
:10503A001E0E0D6E0D2EFED70C2EFCD70B2EFAD798
:10504A00000053EC16F0140E676F000E686F1DEC2B
:10505A0023F000C004F001C005F002C006F003C04E
:10506A0007F0000E006E000E016E7A0E026E880EB8
:10507A00036E4EEC0FF0000E046E000E056E000E6D
:10508A00066E850E076E4EEC0FF007EC0BF000C0B3
:10509A006DF201C06EF253EC16F0010E956F000E20
:1050AA00966F010E976F000E986F090E996F000E9A
:1050BA009A6F4C0E9B6F000E9C6F6EEC16F03D0EB5
:1050CA000B6EE10E0C6E3F0E0D6E0D2EFED70C2EE2
:1050DA00FCD70B2EFAD700000000140E676F000EE3
:1050EA00686F000E681902E1140E671922E1F8ECE4
:1050FA0018F000C067F201C068F2696B6A6B800E33
:10510A006A19006E800E005C02E1400E695D10E2D1
:10511A0040C57FF2000E806F5EEC1FF06DC27FF219
:10512A006EC280F2E7EC21F00201694B6A2BE7D7E5
:10513A00D8D70A0E676F000E686F0D0E0B6E2D0E14
:10514A000C6ED70E0D6E0D2EFED70C2EFCD70B2E25
:10515A00FAD700000000000E681902E1070E67196D
:10516A0078E11F0E0B6E710E0C6E1E0E0D6E0D2E5B
:10517A00FED70C2EFCD70B2EFAD7000053EC16F0F4
:10518A00140E676F000E686F010E956F000E966F12
:10519A00010E976F000E986F0A0E996F000E9A6FA4
:1051AA00570E9B6F000E9C6F6EEC16F0010E956FFA
:1051BA00000E966F020E976F000E986F0D0E996F84
:1051CA00000E9A6F620E9B6F000E9C6F6EEC16F0CB
:1051DA00000E681902E1140E671929E1F8EC18F0BB
:1051EA0000C067F201C068F269C295F26AC296F21B
:1051FA0042EC1CF0DEEC22F0FF0E046E000E056E8F
:10520A00DEEC1BF008C000F009C001F000C07FF21C
:10521A0001C080F25EEC1FF00A0E02017F6F000EE1
:10522A00806FE7EC21F00201694B6A2BD1D70A0E95
:10523A00676F000E686F0D0E0B6E2D0E0C6ED70E7B
:10524A000D6E0D2EFED70C2EFCD70B2EFAD70000B2
:10525A000000000E681902E1080E6719D8A495D15A
:10526A0053EC16F0010E956F000E966F010E976FB4
:10527A00000E986F0B0E996F000E9A6F2A0E9B6F95
:10528A00000E9C6F6EEC16F03D0E0B6EE10E0C6E6E
:10529A003F0E0D6E0D2EFED70C2EFCD70B2EFAD715
:1052AA0000000000CCEC1CF000C057F201C058F21C
:1052BA0002C059F203C05AF253EC16F0010E956F70
:1052CA00000E966F010E976F000E986F0B0E996F76
:1052DA00000E9A6F360E9B6F000E9C6F6EEC16F0E6
:1052EA003D0E0B6EE10E0C6E3F0E0D6E0D2EFED7AF
:1052FA000C2EFCD70B2EFAD700000000CCEC1CF0C9
:10530A0000C05BF201C05CF202C05DF203C05EF253
:10531A0053EC16F0010E956F000E966F010E976F03
:10532A00000E986F090E996F000E9A6F420E9B6FCE
:10533A00000E9C6F6EEC16F03D0E0B6EE10E0C6EBD
:10534A003F0E0D6E0D2EFED70C2EFCD70B2EFAD764
:10535A0000000000CCEC1CF000C07BF201C07CF223
:10536A0002C07DF203C07EF27BC25FF27CC260F2B1
:10537A007DC261F27EC262F257C204F058C205F0E1
:10538A0059C206F05AC207F05BC200F05CC201F0D3
:10539A005DC202F05EC203F041EC06F07BC204F08B
:1053AA007CC205F07DC206F07EC207F04EEC0FF01B
:1053BA0007EC0BF01CEC0CF000C063F201C064F2C5
:1053CA0002C065F203C066F20201696B6A6B69C2C8
:1053DA0000F06AC201F01CEC0CF063C204F064C273
:1053EA0005F065C206F066C207F02FEC08F0010E60
:1053FA00D8B0000E006E0052D8B4B5D069C200F021
:10540A006AC201F01CEC0CF05FC204F060C205F045
:10541A0061C206F062C207F03AEC07F057C204F024
:10542A0058C205F059C206F05AC207F097EC03F0C9
:10543A00000E046E000E056E100E066E830E076EC9
:10544A0041EC06F000C07FF201C080F202C081F296
:10545A0003C082F261EC1CF069C200F06AC201F07A
:10546A001CEC0CF05FC204F060C205F061C206F0E9
:10547A0062C207F03AEC07F057C204F058C205F0CE
:10548A0059C206F05AC207F097EC03F044EC06F052
:10549A0000C07FF201C080F202C081F203C082F232
:1054AA006F0E0201836F020E846F0DEC25F053EC30
:1054BA0016F0010E956F000E966F010E976F000E93
:1054CA00986F0A0E996F000E9A6F700E9B6F000EFE
:1054DA009C6F6EEC16F0010E956F000E966F020E21
:1054EA00976F000E986F080E996F000E9A6F970EBD
:1054FA009B6F000E9C6F6EEC16F0010E956F000EFE
:10550A00966F030E976F000E986F0C0E996F000E30
:10551A009A6F6F0E9B6F020E9C6F6EEC16F0010E67
:10552A00956F000E966F040E976F000E986F0C0E13
:10553A00996F000E9A6FA00E9B6F000E9C6F6EEC17
:10554A0016F02BEC20F01F0E0B6E710E0C6E1E0E59
:10555A000D6E0D2EFED70C2EFCD70B2EFAD700009F
:10556A00694B6A2B34D70A0E676F000E686F0D0EEF
:10557A000B6E2D0E0C6ED70E0D6E0D2EFED70C2E49
:10558A00FCD70B2EFAD700000000000E681902E1C2
:10559A00090E6719D8A4DFD053EC16F0010E956FE7
:1055AA00000E966F010E976F000E986F0D0E996F91
:1055BA00000E9A6FAD0E9B6F000E9C6F6EEC16F08C
:1055CA003D0E0B6EE10E0C6E3F0E0D6E0D2EFED7CC
:1055DA000C2EFCD70B2EFAD700000000CCEC1CF0E6
:1055EA0000C057F201C058F202C059F203C05AF281
:1055FA0053EC16F0010E956F000E966F010E976F21
:10560A00000E986F0D0E996F000E9A6F7B0E9B6FAE
:10561A00000E9C6F6EEC16F03D0E0B6EE10E0C6EDA
:10562A003F0E0D6E0D2EFED70C2EFCD70B2EFAD781
:10563A0000000000CCEC1CF000C05BF201C05CF280
:10564A0002C05DF203C05EF2140E676F000E686F4F
:10565A003D0E0B6EE10E0C6E3F0E0D6E0D2EFED73B
:10566A000C2EFCD70B2EFAD7000000000201000E08
:10567A00681902E1140E67195BE1F8EC18F000C032
:10568A0067F201C068F253EC16F0010E956F000E36
:10569A00966F010E976F000E986F0D0E996F000EA0
:1056AA009A6F890E9B6F000E9C6F6EEC16F0956BCD
:1056BA00A5EC1AF0D2EC21F0000E046E000E056E75
:1056CA00200E066E810E076E3AEC07F057C204F000
:1056DA0058C205F059C206F05AC207F03AEC07F070
:1056EA00000E046EC00E056E7F0E066E880E076EE3
:1056FA004EEC0FF05BC204F05CC205F05DC206F02E
:10570A005EC207F097EC03F000C07FF201C080F29E
:10571A0002C081F203C082F261EC1CF0100E0C6E22
:10572A00940E0D6E0D2EFED70C2EFCD700009ED7C0
:10573A000A0E0201676F000E686F0D0E0B6E2D0EBA
:10574A000C6ED70E0D6E0D2EFED70C2EFCD70B2E1F
:0C575A00FAD7000000007EEF26F0FFD719
:105C4A0010EE2AF0E50E006E020E016E660EF66E7A
:0E5C5A00570EF76E000EF86E59EC1CF012009B
:0C576600456E746572204672657131005A
:0C577200456E746572204672657132004D
:0A577E00456E74657220496E6300E9
:0B5788004665656420446174612100E7
:0B57930047656E65726174696E670007
:0E579E0052616E646F6D205369676E616C001E
:0B57AC00526F756E64656420746F001E
:0E57B700456E746572204361727269657200FE
:0E57C50047656E65726174696E6720464D001F
:0957D300506F737369626C65008C
:0D57DC0020202020202020202020487A00BE
:0D57E900456E74657220536E7376747900FE
:0B57F600456E746572204672657100FC
:0E5801002020203030306B20303030487A00CC
:0E580F005369676E616C466163746F72790055
:0F581D005475726E20416D706C6974756465000E
:0F582C006B6E6F6220746F206368616E6765003A
:0A583B003030562030306D5630003A
:0E5845005346203236373031372D555342004E
:0F58530053616D706C696E672044617461210050
:0F58620053656E64696E6720546F2050432100B8
:0E58710050726F647563742062793A47360096
:09587F00452F30382F303137007D
:09588800452F30382F323637006D
:07589100323A416D70200066
:07589800313A467265710010
:07589F00333A4D6F64650010
:0B58A600456E7465722046726571004B
:0E58B100304D203030306B20303030487A00DF
:0D58BF00313A4D487A2020323A6B487A0089
:0558CC00333A487A00A8
:0758D100363A4375737400C1
:0758D800373A52616E6400D3
:0758DF00343A44415120005E
:0758E600353A4F73636900BE
:0758ED00383A5377657000A3
:0558F400393A464D00A9
:0D58F900313A53696E2020323A537172002B
:0B590600456E746572204672657100EA
:0D591100333A5472672020343A4F74680016
:0E591E002020202020202020303030487A0029
:0E592C002020203030306B20303030487A00A0
:0B593A00456E746572204672657100B6
:06594500352E476E6400E0
:10594B007F090909063E4151215E7F091929464607
:10595B004949493101017F01013F4040403F1F2030
:10596B0040201F3F4038403F631408146307087002
:10597B0008076151494543007F414100020408106B
:10598B00200041417F00040201020440404040409E
